{
  "_format": "hh-sol-artifact-1",
  "contractName": "votingContract",
  "sourceName": "contracts/votingContract.sol",
  "abi": [
    {
      "inputs": [
        {
          "internalType": "contract Groth16Verifier",
          "name": "_verifier",
          "type": "address"
        }
      ],
      "stateMutability": "nonpayable",
      "type": "constructor"
    },
    {
      "inputs": [
        {
          "internalType": "uint256[2]",
          "name": "_a",
          "type": "uint256[2]"
        },
        {
          "internalType": "uint256[2][2]",
          "name": "_b",
          "type": "uint256[2][2]"
        },
        {
          "internalType": "uint256[2]",
          "name": "_c",
          "type": "uint256[2]"
        },
        {
          "internalType": "uint256[2]",
          "name": "_pubSignals",
          "type": "uint256[2]"
        }
      ],
      "name": "castVote",
      "outputs": [],
      "stateMutability": "nonpayable",
      "type": "function"
    },
    {
      "inputs": [
        {
          "internalType": "uint256",
          "name": "_contestantId",
          "type": "uint256"
        }
      ],
      "name": "getVoteInfo",
      "outputs": [
        {
          "internalType": "uint256",
          "name": "",
          "type": "uint256"
        }
      ],
      "stateMutability": "view",
      "type": "function"
    },
    {
      "inputs": [
        {
          "internalType": "address",
          "name": "",
          "type": "address"
        }
      ],
      "name": "hasVoted",
      "outputs": [
        {
          "internalType": "bool",
          "name": "",
          "type": "bool"
        }
      ],
      "stateMutability": "view",
      "type": "function"
    },
    {
      "inputs": [
        {
          "internalType": "uint256",
          "name": "",
          "type": "uint256"
        }
      ],
      "name": "votes",
      "outputs": [
        {
          "internalType": "uint256",
          "name": "",
          "type": "uint256"
        }
      ],
      "stateMutability": "view",
      "type": "function"
    }
  ],
  "bytecode": "0x608060405234801561001057600080fd5b50604051610bdd380380610bdd833981810160405281019061003291906100ed565b806000806101000a81548173ffffffffffffffffffffffffffffffffffffffff021916908373ffffffffffffffffffffffffffffffffffffffff1602179055505061011a565b600080fd5b600073ffffffffffffffffffffffffffffffffffffffff82169050919050565b60006100a88261007d565b9050919050565b60006100ba8261009d565b9050919050565b6100ca816100af565b81146100d557600080fd5b50565b6000815190506100e7816100c1565b92915050565b60006020828403121561010357610102610078565b5b6000610111848285016100d8565b91505092915050565b610ab4806101296000396000f3fe608060405234801561001057600080fd5b506004361061004c5760003560e01c806309eef43e146100515780635df813301461008157806377d6106a146100b15780638d824273146100cd575b600080fd5b61006b600480360381019061006691906103e8565b6100fd565b6040516100789190610430565b60405180910390f35b61009b60048036038101906100969190610481565b61011d565b6040516100a891906104bd565b60405180910390f35b6100cb60048036038101906100c69190610663565b610135565b005b6100e760048036038101906100e29190610481565b61035e565b6040516100f491906104bd565b60405180910390f35b60016020528060005260406000206000915054906101000a900460ff1681565b60026020528060005260406000206000915090505481565b600160003373ffffffffffffffffffffffffffffffffffffffff1673ffffffffffffffffffffffffffffffffffffffff16815260200190815260200160002060009054906101000a900460ff16156101c2576040517f08c379a00000000000000000000000000000000000000000000000000000000081526004016101b990610729565b60405180910390fd5b6001816000600281106101d8576101d7610749565b5b60200201818152505060008054906101000a900473ffffffffffffffffffffffffffffffffffffffff1673ffffffffffffffffffffffffffffffffffffffff1663f5c9d69e858585856040518563ffffffff1660e01b815260040161024094939291906108fb565b602060405180830381865afa15801561025d573d6000803e3d6000fd5b505050506040513d601f19601f82011682018060405250810190610281919061096e565b6102c0576040517f08c379a00000000000000000000000000000000000000000000000000000000081526004016102b7906109e7565b60405180910390fd5b60026000826001600281106102d8576102d7610749565b5b6020020151815260200190815260200160002060008154809291906102fc90610a36565b919050555060018060003373ffffffffffffffffffffffffffffffffffffffff1673ffffffffffffffffffffffffffffffffffffffff16815260200190815260200160002060006101000a81548160ff02191690831515021790555050505050565b600060026000838152602001908152602001600020549050919050565b6000604051905090565b600080fd5b600073ffffffffffffffffffffffffffffffffffffffff82169050919050565b60006103b58261038a565b9050919050565b6103c5816103aa565b81146103d057600080fd5b50565b6000813590506103e2816103bc565b92915050565b6000602082840312156103fe576103fd610385565b5b600061040c848285016103d3565b91505092915050565b60008115159050919050565b61042a81610415565b82525050565b60006020820190506104456000830184610421565b92915050565b6000819050919050565b61045e8161044b565b811461046957600080fd5b50565b60008135905061047b81610455565b92915050565b60006020828403121561049757610496610385565b5b60006104a58482850161046c565b91505092915050565b6104b78161044b565b82525050565b60006020820190506104d260008301846104ae565b92915050565b600080fd5b6000819050826020600202820111156104f9576104f86104d8565b5b92915050565b60008190508260406002028201111561051b5761051a6104d8565b5b92915050565b600080fd5b6000601f19601f8301169050919050565b7f4e487b7100000000000000000000000000000000000000000000000000000000600052604160045260246000fd5b61056f82610526565b810181811067ffffffffffffffff8211171561058e5761058d610537565b5b80604052505050565b60006105a161037b565b90506105ad8282610566565b919050565b600067ffffffffffffffff8211156105cd576105cc610537565b5b602082029050919050565b60006105eb6105e6846105b2565b610597565b90508060208402830185811115610605576106046104d8565b5b835b8181101561062e578061061a888261046c565b845260208401935050602081019050610607565b5050509392505050565b600082601f83011261064d5761064c610521565b5b600261065a8482856105d8565b91505092915050565b600080600080610140858703121561067e5761067d610385565b5b600061068c878288016104dd565b945050604061069d878288016104ff565b93505060c06106ae878288016104dd565b9250506101006106c087828801610638565b91505092959194509250565b600082825260208201905092915050565b7f566f746520697320616c72656164792063617374656400000000000000000000600082015250565b60006107136016836106cc565b915061071e826106dd565b602082019050919050565b6000602082019050818103600083015261074281610706565b9050919050565b7f4e487b7100000000000000000000000000000000000000000000000000000000600052603260045260246000fd5b82818337505050565b61078d60408383610778565b5050565b600060029050919050565b600081905092915050565b6000819050919050565b6107bd60408383610778565b5050565b60006107cd83836107b1565b60408301905092915050565b600082905092915050565b6000604082019050919050565b6107fa81610791565b610804818461079c565b925061080f826107a7565b8060005b838110156108485761082582846107d9565b61082f87826107c1565b965061083a836107e4565b925050600181019050610813565b505050505050565b600060029050919050565b600081905092915050565b6000819050919050565b6108798161044b565b82525050565b600061088b8383610870565b60208301905092915050565b6000602082019050919050565b6108ad81610850565b6108b7818461085b565b92506108c282610866565b8060005b838110156108f35781516108da878261087f565b96506108e583610897565b9250506001810190506108c6565b505050505050565b6000610140820190506109116000830187610781565b61091e60408301866107f1565b61092b60c0830185610781565b6109396101008301846108a4565b95945050505050565b61094b81610415565b811461095657600080fd5b50565b60008151905061096881610942565b92915050565b60006020828403121561098457610983610385565b5b600061099284828501610959565b91505092915050565b7f50726f6f6620766572696669636174696f6e206661696c656400000000000000600082015250565b60006109d16019836106cc565b91506109dc8261099b565b602082019050919050565b60006020820190508181036000830152610a00816109c4565b9050919050565b7f4e487b7100000000000000000000000000000000000000000000000000000000600052601160045260246000fd5b6000610a418261044b565b91507fffffffffffffffffffffffffffffffffffffffffffffffffffffffffffffffff8203610a7357610a72610a07565b5b60018201905091905056fea264697066735822122061a3b78373d66c30f0173f1ade0224e4b0e852034c6b29716a64b3d92eec4a0664736f6c634300081b0033",
  "linkReferences": {},
  "deployedLinkReferences": {}
}