{"contracts/votingContract.sol":{"votingContract":{"abi":[{"inputs":[{"internalType":"contract Groth16Verifier","name":"_verifier","type":"address"}],"stateMutability":"nonpayable","type":"constructor"},{"inputs":[{"internalType":"uint256[2]","name":"_a","type":"uint256[2]"},{"internalType":"uint256[2][2]","name":"_b","type":"uint256[2][2]"},{"internalType":"uint256[2]","name":"_c","type":"uint256[2]"},{"internalType":"uint256[2]","name":"_pubSignals","type":"uint256[2]"}],"name":"castVote","outputs":[],"stateMutability":"nonpayable","type":"function"},{"inputs":[{"internalType":"uint256","name":"_contestantId","type":"uint256"}],"name":"getVoteInfo","outputs":[{"internalType":"uint256","name":"","type":"uint256"}],"stateMutability":"view","type":"function"},{"inputs":[{"internalType":"address","name":"","type":"address"}],"name":"hasVoted","outputs":[{"internalType":"bool","name":"","type":"bool"}],"stateMutability":"view","type":"function"},{"inputs":[{"internalType":"uint256","name":"","type":"uint256"}],"name":"votes","outputs":[{"internalType":"uint256","name":"","type":"uint256"}],"stateMutability":"view","type":"function"}],"evm":{"bytecode":{"linkReferences":{},"object":"608060405234801561001057600080fd5b50604051610bdd380380610bdd833981810160405281019061003291906100ed565b806000806101000a81548173ffffffffffffffffffffffffffffffffffffffff021916908373ffffffffffffffffffffffffffffffffffffffff1602179055505061011a565b600080fd5b600073ffffffffffffffffffffffffffffffffffffffff82169050919050565b60006100a88261007d565b9050919050565b60006100ba8261009d565b9050919050565b6100ca816100af565b81146100d557600080fd5b50565b6000815190506100e7816100c1565b92915050565b60006020828403121561010357610102610078565b5b6000610111848285016100d8565b91505092915050565b610ab4806101296000396000f3fe608060405234801561001057600080fd5b506004361061004c5760003560e01c806309eef43e146100515780635df813301461008157806377d6106a146100b15780638d824273146100cd575b600080fd5b61006b600480360381019061006691906103e8565b6100fd565b6040516100789190610430565b60405180910390f35b61009b60048036038101906100969190610481565b61011d565b6040516100a891906104bd565b60405180910390f35b6100cb60048036038101906100c69190610663565b610135565b005b6100e760048036038101906100e29190610481565b61035e565b6040516100f491906104bd565b60405180910390f35b60016020528060005260406000206000915054906101000a900460ff1681565b60026020528060005260406000206000915090505481565b600160003373ffffffffffffffffffffffffffffffffffffffff1673ffffffffffffffffffffffffffffffffffffffff16815260200190815260200160002060009054906101000a900460ff16156101c2576040517f08c379a00000000000000000000000000000000000000000000000000000000081526004016101b990610729565b60405180910390fd5b6001816000600281106101d8576101d7610749565b5b60200201818152505060008054906101000a900473ffffffffffffffffffffffffffffffffffffffff1673ffffffffffffffffffffffffffffffffffffffff1663f5c9d69e858585856040518563ffffffff1660e01b815260040161024094939291906108fb565b602060405180830381865afa15801561025d573d6000803e3d6000fd5b505050506040513d601f19601f82011682018060405250810190610281919061096e565b6102c0576040517f08c379a00000000000000000000000000000000000000000000000000000000081526004016102b7906109e7565b60405180910390fd5b60026000826001600281106102d8576102d7610749565b5b6020020151815260200190815260200160002060008154809291906102fc90610a36565b919050555060018060003373ffffffffffffffffffffffffffffffffffffffff1673ffffffffffffffffffffffffffffffffffffffff16815260200190815260200160002060006101000a81548160ff02191690831515021790555050505050565b600060026000838152602001908152602001600020549050919050565b6000604051905090565b600080fd5b600073ffffffffffffffffffffffffffffffffffffffff82169050919050565b60006103b58261038a565b9050919050565b6103c5816103aa565b81146103d057600080fd5b50565b6000813590506103e2816103bc565b92915050565b6000602082840312156103fe576103fd610385565b5b600061040c848285016103d3565b91505092915050565b60008115159050919050565b61042a81610415565b82525050565b60006020820190506104456000830184610421565b92915050565b6000819050919050565b61045e8161044b565b811461046957600080fd5b50565b60008135905061047b81610455565b92915050565b60006020828403121561049757610496610385565b5b60006104a58482850161046c565b91505092915050565b6104b78161044b565b82525050565b60006020820190506104d260008301846104ae565b92915050565b600080fd5b6000819050826020600202820111156104f9576104f86104d8565b5b92915050565b60008190508260406002028201111561051b5761051a6104d8565b5b92915050565b600080fd5b6000601f19601f8301169050919050565b7f4e487b7100000000000000000000000000000000000000000000000000000000600052604160045260246000fd5b61056f82610526565b810181811067ffffffffffffffff8211171561058e5761058d610537565b5b80604052505050565b60006105a161037b565b90506105ad8282610566565b919050565b600067ffffffffffffffff8211156105cd576105cc610537565b5b602082029050919050565b60006105eb6105e6846105b2565b610597565b90508060208402830185811115610605576106046104d8565b5b835b8181101561062e578061061a888261046c565b845260208401935050602081019050610607565b5050509392505050565b600082601f83011261064d5761064c610521565b5b600261065a8482856105d8565b91505092915050565b600080600080610140858703121561067e5761067d610385565b5b600061068c878288016104dd565b945050604061069d878288016104ff565b93505060c06106ae878288016104dd565b9250506101006106c087828801610638565b91505092959194509250565b600082825260208201905092915050565b7f566f746520697320616c72656164792063617374656400000000000000000000600082015250565b60006107136016836106cc565b915061071e826106dd565b602082019050919050565b6000602082019050818103600083015261074281610706565b9050919050565b7f4e487b7100000000000000000000000000000000000000000000000000000000600052603260045260246000fd5b82818337505050565b61078d60408383610778565b5050565b600060029050919050565b600081905092915050565b6000819050919050565b6107bd60408383610778565b5050565b60006107cd83836107b1565b60408301905092915050565b600082905092915050565b6000604082019050919050565b6107fa81610791565b610804818461079c565b925061080f826107a7565b8060005b838110156108485761082582846107d9565b61082f87826107c1565b965061083a836107e4565b925050600181019050610813565b505050505050565b600060029050919050565b600081905092915050565b6000819050919050565b6108798161044b565b82525050565b600061088b8383610870565b60208301905092915050565b6000602082019050919050565b6108ad81610850565b6108b7818461085b565b92506108c282610866565b8060005b838110156108f35781516108da878261087f565b96506108e583610897565b9250506001810190506108c6565b505050505050565b6000610140820190506109116000830187610781565b61091e60408301866107f1565b61092b60c0830185610781565b6109396101008301846108a4565b95945050505050565b61094b81610415565b811461095657600080fd5b50565b60008151905061096881610942565b92915050565b60006020828403121561098457610983610385565b5b600061099284828501610959565b91505092915050565b7f50726f6f6620766572696669636174696f6e206661696c656400000000000000600082015250565b60006109d16019836106cc565b91506109dc8261099b565b602082019050919050565b60006020820190508181036000830152610a00816109c4565b9050919050565b7f4e487b7100000000000000000000000000000000000000000000000000000000600052601160045260246000fd5b6000610a418261044b565b91507fffffffffffffffffffffffffffffffffffffffffffffffffffffffffffffffff8203610a7357610a72610a07565b5b60018201905091905056fea264697066735822122061a3b78373d66c30f0173f1ade0224e4b0e852034c6b29716a64b3d92eec4a0664736f6c634300081b0033","opcodes":"PUSH1 0x80 PUSH1 0x40 MSTORE CALLVALUE DUP1 ISZERO PUSH2 0x10 JUMPI PUSH1 0x0 DUP1 REVERT JUMPDEST POP PUSH1 0x40 MLOAD PUSH2 0xBDD CODESIZE SUB DUP1 PUSH2 0xBDD DUP4 CODECOPY DUP2 DUP2 ADD PUSH1 0x40 MSTORE DUP2 ADD SWAP1 PUSH2 0x32 SWAP2 SWAP1 PUSH2 0xED JUMP JUMPDEST DUP1 PUSH1 0x0 DUP1 PUSH2 0x100 EXP DUP2 SLOAD DUP2 PUSH20 0xFFFFFFFFFFFFFFFFFFFFFFFFFFFFFFFFFFFFFFFF MUL NOT AND SWAP1 DUP4 PUSH20 0xFFFFFFFFFFFFFFFFFFFFFFFFFFFFFFFFFFFFFFFF AND MUL OR SWAP1 SSTORE POP POP PUSH2 0x11A JUMP JUMPDEST PUSH1 0x0 DUP1 REVERT JUMPDEST PUSH1 0x0 PUSH20 0xFFFFFFFFFFFFFFFFFFFFFFFFFFFFFFFFFFFFFFFF DUP3 AND SWAP1 POP SWAP2 SWAP1 POP JUMP JUMPDEST PUSH1 0x0 PUSH2 0xA8 DUP3 PUSH2 0x7D JUMP JUMPDEST SWAP1 POP SWAP2 SWAP1 POP JUMP JUMPDEST PUSH1 0x0 PUSH2 0xBA DUP3 PUSH2 0x9D JUMP JUMPDEST SWAP1 POP SWAP2 SWAP1 POP JUMP JUMPDEST PUSH2 0xCA DUP2 PUSH2 0xAF JUMP JUMPDEST DUP2 EQ PUSH2 0xD5 JUMPI PUSH1 0x0 DUP1 REVERT JUMPDEST POP JUMP JUMPDEST PUSH1 0x0 DUP2 MLOAD SWAP1 POP PUSH2 0xE7 DUP2 PUSH2 0xC1 JUMP JUMPDEST SWAP3 SWAP2 POP POP JUMP JUMPDEST PUSH1 0x0 PUSH1 0x20 DUP3 DUP5 SUB SLT ISZERO PUSH2 0x103 JUMPI PUSH2 0x102 PUSH2 0x78 JUMP JUMPDEST JUMPDEST PUSH1 0x0 PUSH2 0x111 DUP5 DUP3 DUP6 ADD PUSH2 0xD8 JUMP JUMPDEST SWAP2 POP POP SWAP3 SWAP2 POP POP JUMP JUMPDEST PUSH2 0xAB4 DUP1 PUSH2 0x129 PUSH1 0x0 CODECOPY PUSH1 0x0 RETURN INVALID PUSH1 0x80 PUSH1 0x40 MSTORE CALLVALUE DUP1 ISZERO PUSH2 0x10 JUMPI PUSH1 0x0 DUP1 REVERT JUMPDEST POP PUSH1 0x4 CALLDATASIZE LT PUSH2 0x4C JUMPI PUSH1 0x0 CALLDATALOAD PUSH1 0xE0 SHR DUP1 PUSH4 0x9EEF43E EQ PUSH2 0x51 JUMPI DUP1 PUSH4 0x5DF81330 EQ PUSH2 0x81 JUMPI DUP1 PUSH4 0x77D6106A EQ PUSH2 0xB1 JUMPI DUP1 PUSH4 0x8D824273 EQ PUSH2 0xCD JUMPI JUMPDEST PUSH1 0x0 DUP1 REVERT JUMPDEST PUSH2 0x6B PUSH1 0x4 DUP1 CALLDATASIZE SUB DUP2 ADD SWAP1 PUSH2 0x66 SWAP2 SWAP1 PUSH2 0x3E8 JUMP JUMPDEST PUSH2 0xFD JUMP JUMPDEST PUSH1 0x40 MLOAD PUSH2 0x78 SWAP2 SWAP1 PUSH2 0x430 JUMP JUMPDEST PUSH1 0x40 MLOAD DUP1 SWAP2 SUB SWAP1 RETURN JUMPDEST PUSH2 0x9B PUSH1 0x4 DUP1 CALLDATASIZE SUB DUP2 ADD SWAP1 PUSH2 0x96 SWAP2 SWAP1 PUSH2 0x481 JUMP JUMPDEST PUSH2 0x11D JUMP JUMPDEST PUSH1 0x40 MLOAD PUSH2 0xA8 SWAP2 SWAP1 PUSH2 0x4BD JUMP JUMPDEST PUSH1 0x40 MLOAD DUP1 SWAP2 SUB SWAP1 RETURN JUMPDEST PUSH2 0xCB PUSH1 0x4 DUP1 CALLDATASIZE SUB DUP2 ADD SWAP1 PUSH2 0xC6 SWAP2 SWAP1 PUSH2 0x663 JUMP JUMPDEST PUSH2 0x135 JUMP JUMPDEST STOP JUMPDEST PUSH2 0xE7 PUSH1 0x4 DUP1 CALLDATASIZE SUB DUP2 ADD SWAP1 PUSH2 0xE2 SWAP2 SWAP1 PUSH2 0x481 JUMP JUMPDEST PUSH2 0x35E JUMP JUMPDEST PUSH1 0x40 MLOAD PUSH2 0xF4 SWAP2 SWAP1 PUSH2 0x4BD JUMP JUMPDEST PUSH1 0x40 MLOAD DUP1 SWAP2 SUB SWAP1 RETURN JUMPDEST PUSH1 0x1 PUSH1 0x20 MSTORE DUP1 PUSH1 0x0 MSTORE PUSH1 0x40 PUSH1 0x0 KECCAK256 PUSH1 0x0 SWAP2 POP SLOAD SWAP1 PUSH2 0x100 EXP SWAP1 DIV PUSH1 0xFF AND DUP2 JUMP JUMPDEST PUSH1 0x2 PUSH1 0x20 MSTORE DUP1 PUSH1 0x0 MSTORE PUSH1 0x40 PUSH1 0x0 KECCAK256 PUSH1 0x0 SWAP2 POP SWAP1 POP SLOAD DUP2 JUMP JUMPDEST PUSH1 0x1 PUSH1 0x0 CALLER PUSH20 0xFFFFFFFFFFFFFFFFFFFFFFFFFFFFFFFFFFFFFFFF AND PUSH20 0xFFFFFFFFFFFFFFFFFFFFFFFFFFFFFFFFFFFFFFFF AND DUP2 MSTORE PUSH1 0x20 ADD SWAP1 DUP2 MSTORE PUSH1 0x20 ADD PUSH1 0x0 KECCAK256 PUSH1 0x0 SWAP1 SLOAD SWAP1 PUSH2 0x100 EXP SWAP1 DIV PUSH1 0xFF AND ISZERO PUSH2 0x1C2 JUMPI PUSH1 0x40 MLOAD PUSH32 0x8C379A000000000000000000000000000000000000000000000000000000000 DUP2 MSTORE PUSH1 0x4 ADD PUSH2 0x1B9 SWAP1 PUSH2 0x729 JUMP JUMPDEST PUSH1 0x40 MLOAD DUP1 SWAP2 SUB SWAP1 REVERT JUMPDEST PUSH1 0x1 DUP2 PUSH1 0x0 PUSH1 0x2 DUP2 LT PUSH2 0x1D8 JUMPI PUSH2 0x1D7 PUSH2 0x749 JUMP JUMPDEST JUMPDEST PUSH1 0x20 MUL ADD DUP2 DUP2 MSTORE POP POP PUSH1 0x0 DUP1 SLOAD SWAP1 PUSH2 0x100 EXP SWAP1 DIV PUSH20 0xFFFFFFFFFFFFFFFFFFFFFFFFFFFFFFFFFFFFFFFF AND PUSH20 0xFFFFFFFFFFFFFFFFFFFFFFFFFFFFFFFFFFFFFFFF AND PUSH4 0xF5C9D69E DUP6 DUP6 DUP6 DUP6 PUSH1 0x40 MLOAD DUP6 PUSH4 0xFFFFFFFF AND PUSH1 0xE0 SHL DUP2 MSTORE PUSH1 0x4 ADD PUSH2 0x240 SWAP5 SWAP4 SWAP3 SWAP2 SWAP1 PUSH2 0x8FB JUMP JUMPDEST PUSH1 0x20 PUSH1 0x40 MLOAD DUP1 DUP4 SUB DUP2 DUP7 GAS STATICCALL ISZERO DUP1 ISZERO PUSH2 0x25D JUMPI RETURNDATASIZE PUSH1 0x0 DUP1 RETURNDATACOPY RETURNDATASIZE PUSH1 0x0 REVERT JUMPDEST POP POP POP POP PUSH1 0x40 MLOAD RETURNDATASIZE PUSH1 0x1F NOT PUSH1 0x1F DUP3 ADD AND DUP3 ADD DUP1 PUSH1 0x40 MSTORE POP DUP2 ADD SWAP1 PUSH2 0x281 SWAP2 SWAP1 PUSH2 0x96E JUMP JUMPDEST PUSH2 0x2C0 JUMPI PUSH1 0x40 MLOAD PUSH32 0x8C379A000000000000000000000000000000000000000000000000000000000 DUP2 MSTORE PUSH1 0x4 ADD PUSH2 0x2B7 SWAP1 PUSH2 0x9E7 JUMP JUMPDEST PUSH1 0x40 MLOAD DUP1 SWAP2 SUB SWAP1 REVERT JUMPDEST PUSH1 0x2 PUSH1 0x0 DUP3 PUSH1 0x1 PUSH1 0x2 DUP2 LT PUSH2 0x2D8 JUMPI PUSH2 0x2D7 PUSH2 0x749 JUMP JUMPDEST JUMPDEST PUSH1 0x20 MUL ADD MLOAD DUP2 MSTORE PUSH1 0x20 ADD SWAP1 DUP2 MSTORE PUSH1 0x20 ADD PUSH1 0x0 KECCAK256 PUSH1 0x0 DUP2 SLOAD DUP1 SWAP3 SWAP2 SWAP1 PUSH2 0x2FC SWAP1 PUSH2 0xA36 JUMP JUMPDEST SWAP2 SWAP1 POP SSTORE POP PUSH1 0x1 DUP1 PUSH1 0x0 CALLER PUSH20 0xFFFFFFFFFFFFFFFFFFFFFFFFFFFFFFFFFFFFFFFF AND PUSH20 0xFFFFFFFFFFFFFFFFFFFFFFFFFFFFFFFFFFFFFFFF AND DUP2 MSTORE PUSH1 0x20 ADD SWAP1 DUP2 MSTORE PUSH1 0x20 ADD PUSH1 0x0 KECCAK256 PUSH1 0x0 PUSH2 0x100 EXP DUP2 SLOAD DUP2 PUSH1 0xFF MUL NOT AND SWAP1 DUP4 ISZERO ISZERO MUL OR SWAP1 SSTORE POP POP POP POP POP JUMP JUMPDEST PUSH1 0x0 PUSH1 0x2 PUSH1 0x0 DUP4 DUP2 MSTORE PUSH1 0x20 ADD SWAP1 DUP2 MSTORE PUSH1 0x20 ADD PUSH1 0x0 KECCAK256 SLOAD SWAP1 POP SWAP2 SWAP1 POP JUMP JUMPDEST PUSH1 0x0 PUSH1 0x40 MLOAD SWAP1 POP SWAP1 JUMP JUMPDEST PUSH1 0x0 DUP1 REVERT JUMPDEST PUSH1 0x0 PUSH20 0xFFFFFFFFFFFFFFFFFFFFFFFFFFFFFFFFFFFFFFFF DUP3 AND SWAP1 POP SWAP2 SWAP1 POP JUMP JUMPDEST PUSH1 0x0 PUSH2 0x3B5 DUP3 PUSH2 0x38A JUMP JUMPDEST SWAP1 POP SWAP2 SWAP1 POP JUMP JUMPDEST PUSH2 0x3C5 DUP2 PUSH2 0x3AA JUMP JUMPDEST DUP2 EQ PUSH2 0x3D0 JUMPI PUSH1 0x0 DUP1 REVERT JUMPDEST POP JUMP JUMPDEST PUSH1 0x0 DUP2 CALLDATALOAD SWAP1 POP PUSH2 0x3E2 DUP2 PUSH2 0x3BC JUMP JUMPDEST SWAP3 SWAP2 POP POP JUMP JUMPDEST PUSH1 0x0 PUSH1 0x20 DUP3 DUP5 SUB SLT ISZERO PUSH2 0x3FE JUMPI PUSH2 0x3FD PUSH2 0x385 JUMP JUMPDEST JUMPDEST PUSH1 0x0 PUSH2 0x40C DUP5 DUP3 DUP6 ADD PUSH2 0x3D3 JUMP JUMPDEST SWAP2 POP POP SWAP3 SWAP2 POP POP JUMP JUMPDEST PUSH1 0x0 DUP2 ISZERO ISZERO SWAP1 POP SWAP2 SWAP1 POP JUMP JUMPDEST PUSH2 0x42A DUP2 PUSH2 0x415 JUMP JUMPDEST DUP3 MSTORE POP POP JUMP JUMPDEST PUSH1 0x0 PUSH1 0x20 DUP3 ADD SWAP1 POP PUSH2 0x445 PUSH1 0x0 DUP4 ADD DUP5 PUSH2 0x421 JUMP JUMPDEST SWAP3 SWAP2 POP POP JUMP JUMPDEST PUSH1 0x0 DUP2 SWAP1 POP SWAP2 SWAP1 POP JUMP JUMPDEST PUSH2 0x45E DUP2 PUSH2 0x44B JUMP JUMPDEST DUP2 EQ PUSH2 0x469 JUMPI PUSH1 0x0 DUP1 REVERT JUMPDEST POP JUMP JUMPDEST PUSH1 0x0 DUP2 CALLDATALOAD SWAP1 POP PUSH2 0x47B DUP2 PUSH2 0x455 JUMP JUMPDEST SWAP3 SWAP2 POP POP JUMP JUMPDEST PUSH1 0x0 PUSH1 0x20 DUP3 DUP5 SUB SLT ISZERO PUSH2 0x497 JUMPI PUSH2 0x496 PUSH2 0x385 JUMP JUMPDEST JUMPDEST PUSH1 0x0 PUSH2 0x4A5 DUP5 DUP3 DUP6 ADD PUSH2 0x46C JUMP JUMPDEST SWAP2 POP POP SWAP3 SWAP2 POP POP JUMP JUMPDEST PUSH2 0x4B7 DUP2 PUSH2 0x44B JUMP JUMPDEST DUP3 MSTORE POP POP JUMP JUMPDEST PUSH1 0x0 PUSH1 0x20 DUP3 ADD SWAP1 POP PUSH2 0x4D2 PUSH1 0x0 DUP4 ADD DUP5 PUSH2 0x4AE JUMP JUMPDEST SWAP3 SWAP2 POP POP JUMP JUMPDEST PUSH1 0x0 DUP1 REVERT JUMPDEST PUSH1 0x0 DUP2 SWAP1 POP DUP3 PUSH1 0x20 PUSH1 0x2 MUL DUP3 ADD GT ISZERO PUSH2 0x4F9 JUMPI PUSH2 0x4F8 PUSH2 0x4D8 JUMP JUMPDEST JUMPDEST SWAP3 SWAP2 POP POP JUMP JUMPDEST PUSH1 0x0 DUP2 SWAP1 POP DUP3 PUSH1 0x40 PUSH1 0x2 MUL DUP3 ADD GT ISZERO PUSH2 0x51B JUMPI PUSH2 0x51A PUSH2 0x4D8 JUMP JUMPDEST JUMPDEST SWAP3 SWAP2 POP POP JUMP JUMPDEST PUSH1 0x0 DUP1 REVERT JUMPDEST PUSH1 0x0 PUSH1 0x1F NOT PUSH1 0x1F DUP4 ADD AND SWAP1 POP SWAP2 SWAP1 POP JUMP JUMPDEST PUSH32 0x4E487B7100000000000000000000000000000000000000000000000000000000 PUSH1 0x0 MSTORE PUSH1 0x41 PUSH1 0x4 MSTORE PUSH1 0x24 PUSH1 0x0 REVERT JUMPDEST PUSH2 0x56F DUP3 PUSH2 0x526 JUMP JUMPDEST DUP2 ADD DUP2 DUP2 LT PUSH8 0xFFFFFFFFFFFFFFFF DUP3 GT OR ISZERO PUSH2 0x58E JUMPI PUSH2 0x58D PUSH2 0x537 JUMP JUMPDEST JUMPDEST DUP1 PUSH1 0x40 MSTORE POP POP POP JUMP JUMPDEST PUSH1 0x0 PUSH2 0x5A1 PUSH2 0x37B JUMP JUMPDEST SWAP1 POP PUSH2 0x5AD DUP3 DUP3 PUSH2 0x566 JUMP JUMPDEST SWAP2 SWAP1 POP JUMP JUMPDEST PUSH1 0x0 PUSH8 0xFFFFFFFFFFFFFFFF DUP3 GT ISZERO PUSH2 0x5CD JUMPI PUSH2 0x5CC PUSH2 0x537 JUMP JUMPDEST JUMPDEST PUSH1 0x20 DUP3 MUL SWAP1 POP SWAP2 SWAP1 POP JUMP JUMPDEST PUSH1 0x0 PUSH2 0x5EB PUSH2 0x5E6 DUP5 PUSH2 0x5B2 JUMP JUMPDEST PUSH2 0x597 JUMP JUMPDEST SWAP1 POP DUP1 PUSH1 0x20 DUP5 MUL DUP4 ADD DUP6 DUP2 GT ISZERO PUSH2 0x605 JUMPI PUSH2 0x604 PUSH2 0x4D8 JUMP JUMPDEST JUMPDEST DUP4 JUMPDEST DUP2 DUP2 LT ISZERO PUSH2 0x62E JUMPI DUP1 PUSH2 0x61A DUP9 DUP3 PUSH2 0x46C JUMP JUMPDEST DUP5 MSTORE PUSH1 0x20 DUP5 ADD SWAP4 POP POP PUSH1 0x20 DUP2 ADD SWAP1 POP PUSH2 0x607 JUMP JUMPDEST POP POP POP SWAP4 SWAP3 POP POP POP JUMP JUMPDEST PUSH1 0x0 DUP3 PUSH1 0x1F DUP4 ADD SLT PUSH2 0x64D JUMPI PUSH2 0x64C PUSH2 0x521 JUMP JUMPDEST JUMPDEST PUSH1 0x2 PUSH2 0x65A DUP5 DUP3 DUP6 PUSH2 0x5D8 JUMP JUMPDEST SWAP2 POP POP SWAP3 SWAP2 POP POP JUMP JUMPDEST PUSH1 0x0 DUP1 PUSH1 0x0 DUP1 PUSH2 0x140 DUP6 DUP8 SUB SLT ISZERO PUSH2 0x67E JUMPI PUSH2 0x67D PUSH2 0x385 JUMP JUMPDEST JUMPDEST PUSH1 0x0 PUSH2 0x68C DUP8 DUP3 DUP9 ADD PUSH2 0x4DD JUMP JUMPDEST SWAP5 POP POP PUSH1 0x40 PUSH2 0x69D DUP8 DUP3 DUP9 ADD PUSH2 0x4FF JUMP JUMPDEST SWAP4 POP POP PUSH1 0xC0 PUSH2 0x6AE DUP8 DUP3 DUP9 ADD PUSH2 0x4DD JUMP JUMPDEST SWAP3 POP POP PUSH2 0x100 PUSH2 0x6C0 DUP8 DUP3 DUP9 ADD PUSH2 0x638 JUMP JUMPDEST SWAP2 POP POP SWAP3 SWAP6 SWAP2 SWAP5 POP SWAP3 POP JUMP JUMPDEST PUSH1 0x0 DUP3 DUP3 MSTORE PUSH1 0x20 DUP3 ADD SWAP1 POP SWAP3 SWAP2 POP POP JUMP JUMPDEST PUSH32 0x566F746520697320616C72656164792063617374656400000000000000000000 PUSH1 0x0 DUP3 ADD MSTORE POP JUMP JUMPDEST PUSH1 0x0 PUSH2 0x713 PUSH1 0x16 DUP4 PUSH2 0x6CC JUMP JUMPDEST SWAP2 POP PUSH2 0x71E DUP3 PUSH2 0x6DD JUMP JUMPDEST PUSH1 0x20 DUP3 ADD SWAP1 POP SWAP2 SWAP1 POP JUMP JUMPDEST PUSH1 0x0 PUSH1 0x20 DUP3 ADD SWAP1 POP DUP2 DUP2 SUB PUSH1 0x0 DUP4 ADD MSTORE PUSH2 0x742 DUP2 PUSH2 0x706 JUMP JUMPDEST SWAP1 POP SWAP2 SWAP1 POP JUMP JUMPDEST PUSH32 0x4E487B7100000000000000000000000000000000000000000000000000000000 PUSH1 0x0 MSTORE PUSH1 0x32 PUSH1 0x4 MSTORE PUSH1 0x24 PUSH1 0x0 REVERT JUMPDEST DUP3 DUP2 DUP4 CALLDATACOPY POP POP POP JUMP JUMPDEST PUSH2 0x78D PUSH1 0x40 DUP4 DUP4 PUSH2 0x778 JUMP JUMPDEST POP POP JUMP JUMPDEST PUSH1 0x0 PUSH1 0x2 SWAP1 POP SWAP2 SWAP1 POP JUMP JUMPDEST PUSH1 0x0 DUP2 SWAP1 POP SWAP3 SWAP2 POP POP JUMP JUMPDEST PUSH1 0x0 DUP2 SWAP1 POP SWAP2 SWAP1 POP JUMP JUMPDEST PUSH2 0x7BD PUSH1 0x40 DUP4 DUP4 PUSH2 0x778 JUMP JUMPDEST POP POP JUMP JUMPDEST PUSH1 0x0 PUSH2 0x7CD DUP4 DUP4 PUSH2 0x7B1 JUMP JUMPDEST PUSH1 0x40 DUP4 ADD SWAP1 POP SWAP3 SWAP2 POP POP JUMP JUMPDEST PUSH1 0x0 DUP3 SWAP1 POP SWAP3 SWAP2 POP POP JUMP JUMPDEST PUSH1 0x0 PUSH1 0x40 DUP3 ADD SWAP1 POP SWAP2 SWAP1 POP JUMP JUMPDEST PUSH2 0x7FA DUP2 PUSH2 0x791 JUMP JUMPDEST PUSH2 0x804 DUP2 DUP5 PUSH2 0x79C JUMP JUMPDEST SWAP3 POP PUSH2 0x80F DUP3 PUSH2 0x7A7 JUMP JUMPDEST DUP1 PUSH1 0x0 JUMPDEST DUP4 DUP2 LT ISZERO PUSH2 0x848 JUMPI PUSH2 0x825 DUP3 DUP5 PUSH2 0x7D9 JUMP JUMPDEST PUSH2 0x82F DUP8 DUP3 PUSH2 0x7C1 JUMP JUMPDEST SWAP7 POP PUSH2 0x83A DUP4 PUSH2 0x7E4 JUMP JUMPDEST SWAP3 POP POP PUSH1 0x1 DUP2 ADD SWAP1 POP PUSH2 0x813 JUMP JUMPDEST POP POP POP POP POP POP JUMP JUMPDEST PUSH1 0x0 PUSH1 0x2 SWAP1 POP SWAP2 SWAP1 POP JUMP JUMPDEST PUSH1 0x0 DUP2 SWAP1 POP SWAP3 SWAP2 POP POP JUMP JUMPDEST PUSH1 0x0 DUP2 SWAP1 POP SWAP2 SWAP1 POP JUMP JUMPDEST PUSH2 0x879 DUP2 PUSH2 0x44B JUMP JUMPDEST DUP3 MSTORE POP POP JUMP JUMPDEST PUSH1 0x0 PUSH2 0x88B DUP4 DUP4 PUSH2 0x870 JUMP JUMPDEST PUSH1 0x20 DUP4 ADD SWAP1 POP SWAP3 SWAP2 POP POP JUMP JUMPDEST PUSH1 0x0 PUSH1 0x20 DUP3 ADD SWAP1 POP SWAP2 SWAP1 POP JUMP JUMPDEST PUSH2 0x8AD DUP2 PUSH2 0x850 JUMP JUMPDEST PUSH2 0x8B7 DUP2 DUP5 PUSH2 0x85B JUMP JUMPDEST SWAP3 POP PUSH2 0x8C2 DUP3 PUSH2 0x866 JUMP JUMPDEST DUP1 PUSH1 0x0 JUMPDEST DUP4 DUP2 LT ISZERO PUSH2 0x8F3 JUMPI DUP2 MLOAD PUSH2 0x8DA DUP8 DUP3 PUSH2 0x87F JUMP JUMPDEST SWAP7 POP PUSH2 0x8E5 DUP4 PUSH2 0x897 JUMP JUMPDEST SWAP3 POP POP PUSH1 0x1 DUP2 ADD SWAP1 POP PUSH2 0x8C6 JUMP JUMPDEST POP POP POP POP POP POP JUMP JUMPDEST PUSH1 0x0 PUSH2 0x140 DUP3 ADD SWAP1 POP PUSH2 0x911 PUSH1 0x0 DUP4 ADD DUP8 PUSH2 0x781 JUMP JUMPDEST PUSH2 0x91E PUSH1 0x40 DUP4 ADD DUP7 PUSH2 0x7F1 JUMP JUMPDEST PUSH2 0x92B PUSH1 0xC0 DUP4 ADD DUP6 PUSH2 0x781 JUMP JUMPDEST PUSH2 0x939 PUSH2 0x100 DUP4 ADD DUP5 PUSH2 0x8A4 JUMP JUMPDEST SWAP6 SWAP5 POP POP POP POP POP JUMP JUMPDEST PUSH2 0x94B DUP2 PUSH2 0x415 JUMP JUMPDEST DUP2 EQ PUSH2 0x956 JUMPI PUSH1 0x0 DUP1 REVERT JUMPDEST POP JUMP JUMPDEST PUSH1 0x0 DUP2 MLOAD SWAP1 POP PUSH2 0x968 DUP2 PUSH2 0x942 JUMP JUMPDEST SWAP3 SWAP2 POP POP JUMP JUMPDEST PUSH1 0x0 PUSH1 0x20 DUP3 DUP5 SUB SLT ISZERO PUSH2 0x984 JUMPI PUSH2 0x983 PUSH2 0x385 JUMP JUMPDEST JUMPDEST PUSH1 0x0 PUSH2 0x992 DUP5 DUP3 DUP6 ADD PUSH2 0x959 JUMP JUMPDEST SWAP2 POP POP SWAP3 SWAP2 POP POP JUMP JUMPDEST PUSH32 0x50726F6F6620766572696669636174696F6E206661696C656400000000000000 PUSH1 0x0 DUP3 ADD MSTORE POP JUMP JUMPDEST PUSH1 0x0 PUSH2 0x9D1 PUSH1 0x19 DUP4 PUSH2 0x6CC JUMP JUMPDEST SWAP2 POP PUSH2 0x9DC DUP3 PUSH2 0x99B JUMP JUMPDEST PUSH1 0x20 DUP3 ADD SWAP1 POP SWAP2 SWAP1 POP JUMP JUMPDEST PUSH1 0x0 PUSH1 0x20 DUP3 ADD SWAP1 POP DUP2 DUP2 SUB PUSH1 0x0 DUP4 ADD MSTORE PUSH2 0xA00 DUP2 PUSH2 0x9C4 JUMP JUMPDEST SWAP1 POP SWAP2 SWAP1 POP JUMP JUMPDEST PUSH32 0x4E487B7100000000000000000000000000000000000000000000000000000000 PUSH1 0x0 MSTORE PUSH1 0x11 PUSH1 0x4 MSTORE PUSH1 0x24 PUSH1 0x0 REVERT JUMPDEST PUSH1 0x0 PUSH2 0xA41 DUP3 PUSH2 0x44B JUMP JUMPDEST SWAP2 POP PUSH32 0xFFFFFFFFFFFFFFFFFFFFFFFFFFFFFFFFFFFFFFFFFFFFFFFFFFFFFFFFFFFFFFFF DUP3 SUB PUSH2 0xA73 JUMPI PUSH2 0xA72 PUSH2 0xA07 JUMP JUMPDEST JUMPDEST PUSH1 0x1 DUP3 ADD SWAP1 POP SWAP2 SWAP1 POP JUMP INVALID LOG2 PUSH5 0x6970667358 0x22 SLT KECCAK256 PUSH2 0xA3B7 DUP4 PUSH20 0xD66C30F0173F1ADE0224E4B0E852034C6B29716A PUSH5 0xB3D92EEC4A MOD PUSH5 0x736F6C6343 STOP ADDMOD SHL STOP CALLER "},"methodIdentifiers":{"castVote(uint256[2],uint256[2][2],uint256[2],uint256[2])":"77d6106a","getVoteInfo(uint256)":"8d824273","hasVoted(address)":"09eef43e","votes(uint256)":"5df81330"}}}}}